{
  "contractName": "Voting",
  "abi": [
    {
      "anonymous": false,
      "inputs": [
        {
          "indexed": true,
          "internalType": "address",
          "name": "previousOwner",
          "type": "address"
        },
        {
          "indexed": true,
          "internalType": "address",
          "name": "newOwner",
          "type": "address"
        }
      ],
      "name": "OwnershipTransferred",
      "type": "event"
    },
    {
      "anonymous": false,
      "inputs": [
        {
          "indexed": false,
          "internalType": "uint256",
          "name": "proposalId",
          "type": "uint256"
        }
      ],
      "name": "ProposalRegistered",
      "type": "event"
    },
    {
      "anonymous": false,
      "inputs": [
        {
          "indexed": false,
          "internalType": "address",
          "name": "voter",
          "type": "address"
        },
        {
          "indexed": false,
          "internalType": "uint256",
          "name": "proposalId",
          "type": "uint256"
        }
      ],
      "name": "Voted",
      "type": "event"
    },
    {
      "anonymous": false,
      "inputs": [
        {
          "indexed": false,
          "internalType": "address",
          "name": "voterAddress",
          "type": "address"
        }
      ],
      "name": "VoterRegistered",
      "type": "event"
    },
    {
      "anonymous": false,
      "inputs": [
        {
          "indexed": false,
          "internalType": "enum Voting.WorkflowStatus",
          "name": "previousStatus",
          "type": "uint8"
        },
        {
          "indexed": false,
          "internalType": "enum Voting.WorkflowStatus",
          "name": "newStatus",
          "type": "uint8"
        }
      ],
      "name": "WorkflowStatusChange",
      "type": "event"
    },
    {
      "inputs": [],
      "name": "owner",
      "outputs": [
        {
          "internalType": "address",
          "name": "",
          "type": "address"
        }
      ],
      "stateMutability": "view",
      "type": "function",
      "constant": true
    },
    {
      "inputs": [],
      "name": "renounceOwnership",
      "outputs": [],
      "stateMutability": "nonpayable",
      "type": "function"
    },
    {
      "inputs": [
        {
          "internalType": "address",
          "name": "newOwner",
          "type": "address"
        }
      ],
      "name": "transferOwnership",
      "outputs": [],
      "stateMutability": "nonpayable",
      "type": "function"
    },
    {
      "inputs": [],
      "name": "winningProposalID",
      "outputs": [
        {
          "internalType": "uint256",
          "name": "",
          "type": "uint256"
        }
      ],
      "stateMutability": "view",
      "type": "function",
      "constant": true
    },
    {
      "inputs": [],
      "name": "workflowStatus",
      "outputs": [
        {
          "internalType": "enum Voting.WorkflowStatus",
          "name": "",
          "type": "uint8"
        }
      ],
      "stateMutability": "view",
      "type": "function",
      "constant": true
    },
    {
      "inputs": [
        {
          "internalType": "address",
          "name": "_addr",
          "type": "address"
        }
      ],
      "name": "getVoter",
      "outputs": [
        {
          "components": [
            {
              "internalType": "bool",
              "name": "isRegistered",
              "type": "bool"
            },
            {
              "internalType": "bool",
              "name": "hasVoted",
              "type": "bool"
            },
            {
              "internalType": "uint256",
              "name": "votedProposalId",
              "type": "uint256"
            }
          ],
          "internalType": "struct Voting.Voter",
          "name": "",
          "type": "tuple"
        }
      ],
      "stateMutability": "view",
      "type": "function",
      "constant": true
    },
    {
      "inputs": [
        {
          "internalType": "uint256",
          "name": "_id",
          "type": "uint256"
        }
      ],
      "name": "getOneProposal",
      "outputs": [
        {
          "components": [
            {
              "internalType": "string",
              "name": "description",
              "type": "string"
            },
            {
              "internalType": "uint256",
              "name": "voteCount",
              "type": "uint256"
            }
          ],
          "internalType": "struct Voting.Proposal",
          "name": "",
          "type": "tuple"
        }
      ],
      "stateMutability": "view",
      "type": "function",
      "constant": true
    },
    {
      "inputs": [
        {
          "internalType": "address",
          "name": "_addr",
          "type": "address"
        }
      ],
      "name": "addVoter",
      "outputs": [],
      "stateMutability": "nonpayable",
      "type": "function"
    },
    {
      "inputs": [
        {
          "internalType": "string",
          "name": "_desc",
          "type": "string"
        }
      ],
      "name": "addProposal",
      "outputs": [],
      "stateMutability": "nonpayable",
      "type": "function"
    },
    {
      "inputs": [
        {
          "internalType": "uint256",
          "name": "_id",
          "type": "uint256"
        }
      ],
      "name": "setVote",
      "outputs": [],
      "stateMutability": "nonpayable",
      "type": "function"
    },
    {
      "inputs": [],
      "name": "startProposalsRegistering",
      "outputs": [],
      "stateMutability": "nonpayable",
      "type": "function"
    },
    {
      "inputs": [],
      "name": "endProposalsRegistering",
      "outputs": [],
      "stateMutability": "nonpayable",
      "type": "function"
    },
    {
      "inputs": [],
      "name": "startVotingSession",
      "outputs": [],
      "stateMutability": "nonpayable",
      "type": "function"
    },
    {
      "inputs": [],
      "name": "endVotingSession",
      "outputs": [],
      "stateMutability": "nonpayable",
      "type": "function"
    },
    {
      "inputs": [],
      "name": "tallyVotes",
      "outputs": [],
      "stateMutability": "nonpayable",
      "type": "function"
    }
  ],
  "bytecode": "0x608060405234801561001057600080fd5b5061002d61002261003260201b60201c565b61003a60201b60201c565b6100fe565b600033905090565b60008060009054906101000a900473ffffffffffffffffffffffffffffffffffffffff169050816000806101000a81548173ffffffffffffffffffffffffffffffffffffffff021916908373ffffffffffffffffffffffffffffffffffffffff1602179055508173ffffffffffffffffffffffffffffffffffffffff168173ffffffffffffffffffffffffffffffffffffffff167f8be0079c531659141344cd1fd0a4f28419497f9722a3daafe3b4186f6b6457e060405160405180910390a35050565b6122fd806200010e6000396000f3fe608060405234801561001057600080fd5b50600436106100f55760003560e01c8063a7bfab1611610097578063d4f50f9811610066578063d4f50f98146101ee578063ee74c6781461021e578063f2fde38b14610228578063f4ab9adf14610244576100f5565b8063a7bfab16146101b2578063bdc01431146101bc578063c7038a4e146101da578063c88af42f146101e4576100f5565b8063715018a6116100d3578063715018a61461013c5780638da5cb5b14610146578063a1edffa214610164578063a2788cce14610182576100f5565b8063230796ae146100fa5780632fdae3c514610116578063378a217814610132575b600080fd5b610114600480360381019061010f919061146a565b610260565b005b610130600480360381019061012b91906115dd565b61055b565b005b61013a6107e7565b005b610144610954565b005b61014e610968565b60405161015b9190611667565b60405180910390f35b61016c610991565b60405161017991906116f9565b60405180910390f35b61019c6004803603810190610197919061146a565b6109a4565b6040516101a991906117e8565b60405180910390f35b6101ba610b0b565b005b6101c4610bf1565b6040516101d19190611819565b60405180910390f35b6101e2610bf7565b005b6101ec610cdd565b005b61020860048036038101906102039190611860565b610dc2565b60405161021591906118ea565b60405180910390f35b610226610eea565b005b610242600480360381019061023d9190611860565b610fd0565b005b61025e60048036038101906102599190611860565b611053565b005b600460003373ffffffffffffffffffffffffffffffffffffffff1673ffffffffffffffffffffffffffffffffffffffff16815260200190815260200160002060000160009054906101000a900460ff166102ef576040517f08c379a00000000000000000000000000000000000000000000000000000000081526004016102e690611962565b60405180910390fd5b6003600581111561030357610302611682565b5b600260009054906101000a900460ff16600581111561032557610324611682565b5b14610365576040517f08c379a000000000000000000000000000000000000000000000000000000000815260040161035c906119f4565b60405180910390fd5b60011515600460003373ffffffffffffffffffffffffffffffffffffffff1673ffffffffffffffffffffffffffffffffffffffff16815260200190815260200160002060000160019054906101000a900460ff161515036103fb576040517f08c379a00000000000000000000000000000000000000000000000000000000081526004016103f290611a60565b60405180910390fd5b6003805490508110610442576040517f08c379a000000000000000000000000000000000000000000000000000000000815260040161043990611acc565b60405180910390fd5b80600460003373ffffffffffffffffffffffffffffffffffffffff1673ffffffffffffffffffffffffffffffffffffffff168152602001908152602001600020600101819055506001600460003373ffffffffffffffffffffffffffffffffffffffff1673ffffffffffffffffffffffffffffffffffffffff16815260200190815260200160002060000160016101000a81548160ff021916908315150217905550600381815481106104f8576104f7611aec565b5b9060005260206000209060020201600101600081548092919061051a90611b4a565b91905055507f4d99b957a2bc29a30ebd96a7be8e68fe50a3c701db28a91436490b7d53870ca43382604051610550929190611b92565b60405180910390a150565b600460003373ffffffffffffffffffffffffffffffffffffffff1673ffffffffffffffffffffffffffffffffffffffff16815260200190815260200160002060000160009054906101000a900460ff166105ea576040517f08c379a00000000000000000000000000000000000000000000000000000000081526004016105e190611962565b60405180910390fd5b600160058111156105fe576105fd611682565b5b600260009054906101000a900460ff1660058111156106205761061f611682565b5b14610660576040517f08c379a000000000000000000000000000000000000000000000000000000000815260040161065790611c07565b60405180910390fd5b60405160200161066f90611c4d565b60405160208183030381529060405280519060200120816040516020016106969190611ca6565b60405160208183030381529060405280519060200120036106ec576040517f08c379a00000000000000000000000000000000000000000000000000000000081526004016106e390611d3a565b60405180910390fd5b60646003805490501115610735576040517f08c379a000000000000000000000000000000000000000000000000000000000815260040161072c90611da6565b60405180910390fd5b61073d61133e565b8181600001819052506003819080600181540180825580915050600190039060005260206000209060020201600090919091909150600082015181600001908051906020019061078e929190611358565b506020820151816001015550507f92e393e9b54e2f801d3ea4beb0c5e71a21cc34a5d34b77d0fb8a3aa1650dc18f60016003805490506107ce9190611dc6565b6040516107db9190611819565b60405180910390a15050565b6107ef6111f4565b6004600581111561080357610802611682565b5b600260009054906101000a900460ff16600581111561082557610824611682565b5b14610865576040517f08c379a000000000000000000000000000000000000000000000000000000000815260040161085c90611e6c565b60405180910390fd5b600080600090505b6003805490508110156108e3576003828154811061088e5761088d611aec565b5b906000526020600020906002020160010154600382815481106108b4576108b3611aec565b5b90600052602060002090600202016001015411156108d0578091505b80806108db90611b4a565b91505061086d565b50806001819055506005600260006101000a81548160ff0219169083600581111561091157610910611682565b5b02179055507f0a97a4ee45751e2abf3e4fc8946939630b11b371ea8ae39ccdc3056e98f5cc3f60046005604051610949929190611e8c565b60405180910390a150565b61095c6111f4565b6109666000611272565b565b60008060009054906101000a900473ffffffffffffffffffffffffffffffffffffffff16905090565b600260009054906101000a900460ff1681565b6109ac61133e565b600460003373ffffffffffffffffffffffffffffffffffffffff1673ffffffffffffffffffffffffffffffffffffffff16815260200190815260200160002060000160009054906101000a900460ff16610a3b576040517f08c379a0000000000000000000000000000000000000000000000000000000008152600401610a3290611962565b60405180910390fd5b60038281548110610a4f57610a4e611aec565b5b9060005260206000209060020201604051806040016040529081600082018054610a7890611ee4565b80601f0160208091040260200160405190810160405280929190818152602001828054610aa490611ee4565b8015610af15780601f10610ac657610100808354040283529160200191610af1565b820191906000526020600020905b815481529060010190602001808311610ad457829003601f168201915b505050505081526020016001820154815250509050919050565b610b136111f4565b60036005811115610b2757610b26611682565b5b600260009054906101000a900460ff166005811115610b4957610b48611682565b5b14610b89576040517f08c379a0000000000000000000000000000000000000000000000000000000008152600401610b80906119f4565b60405180910390fd5b6004600260006101000a81548160ff02191690836005811115610baf57610bae611682565b5b02179055507f0a97a4ee45751e2abf3e4fc8946939630b11b371ea8ae39ccdc3056e98f5cc3f60036004604051610be7929190611e8c565b60405180910390a1565b60015481565b610bff6111f4565b60006005811115610c1357610c12611682565b5b600260009054906101000a900460ff166005811115610c3557610c34611682565b5b14610c75576040517f08c379a0000000000000000000000000000000000000000000000000000000008152600401610c6c90611f87565b60405180910390fd5b6001600260006101000a81548160ff02191690836005811115610c9b57610c9a611682565b5b02179055507f0a97a4ee45751e2abf3e4fc8946939630b11b371ea8ae39ccdc3056e98f5cc3f60006001604051610cd3929190611e8c565b60405180910390a1565b610ce56111f4565b60016005811115610cf957610cf8611682565b5b600260009054906101000a900460ff166005811115610d1b57610d1a611682565b5b14610d5b576040517f08c379a0000000000000000000000000000000000000000000000000000000008152600401610d5290612019565b60405180910390fd5b60028060006101000a81548160ff02191690836005811115610d8057610d7f611682565b5b02179055507f0a97a4ee45751e2abf3e4fc8946939630b11b371ea8ae39ccdc3056e98f5cc3f60016002604051610db8929190611e8c565b60405180910390a1565b610dca6113de565b600460003373ffffffffffffffffffffffffffffffffffffffff1673ffffffffffffffffffffffffffffffffffffffff16815260200190815260200160002060000160009054906101000a900460ff16610e59576040517f08c379a0000000000000000000000000000000000000000000000000000000008152600401610e5090611962565b60405180910390fd5b600460008373ffffffffffffffffffffffffffffffffffffffff1673ffffffffffffffffffffffffffffffffffffffff1681526020019081526020016000206040518060600160405290816000820160009054906101000a900460ff161515151581526020016000820160019054906101000a900460ff161515151581526020016001820154815250509050919050565b610ef26111f4565b60026005811115610f0657610f05611682565b5b600260009054906101000a900460ff166005811115610f2857610f27611682565b5b14610f68576040517f08c379a0000000000000000000000000000000000000000000000000000000008152600401610f5f906120ab565b60405180910390fd5b6003600260006101000a81548160ff02191690836005811115610f8e57610f8d611682565b5b02179055507f0a97a4ee45751e2abf3e4fc8946939630b11b371ea8ae39ccdc3056e98f5cc3f60026003604051610fc6929190611e8c565b60405180910390a1565b610fd86111f4565b600073ffffffffffffffffffffffffffffffffffffffff168173ffffffffffffffffffffffffffffffffffffffff1603611047576040517f08c379a000000000000000000000000000000000000000000000000000000000815260040161103e9061213d565b60405180910390fd5b61105081611272565b50565b6000600581111561106757611066611682565b5b600260009054906101000a900460ff16600581111561108957611088611682565b5b146110c9576040517f08c379a00000000000000000000000000000000000000000000000000000000081526004016110c0906121cf565b60405180910390fd5b60011515600460008373ffffffffffffffffffffffffffffffffffffffff1673ffffffffffffffffffffffffffffffffffffffff16815260200190815260200160002060000160009054906101000a900460ff1615150361115f576040517f08c379a00000000000000000000000000000000000000000000000000000000081526004016111569061223b565b60405180910390fd5b6001600460008373ffffffffffffffffffffffffffffffffffffffff1673ffffffffffffffffffffffffffffffffffffffff16815260200190815260200160002060000160006101000a81548160ff0219169083151502179055507fb6be2187d059cc2a55fe29e0e503b566e1e0f8c8780096e185429350acffd3dd816040516111e99190611667565b60405180910390a150565b6111fc611336565b73ffffffffffffffffffffffffffffffffffffffff1661121a610968565b73ffffffffffffffffffffffffffffffffffffffff1614611270576040517f08c379a0000000000000000000000000000000000000000000000000000000008152600401611267906122a7565b60405180910390fd5b565b60008060009054906101000a900473ffffffffffffffffffffffffffffffffffffffff169050816000806101000a81548173ffffffffffffffffffffffffffffffffffffffff021916908373ffffffffffffffffffffffffffffffffffffffff1602179055508173ffffffffffffffffffffffffffffffffffffffff168173ffffffffffffffffffffffffffffffffffffffff167f8be0079c531659141344cd1fd0a4f28419497f9722a3daafe3b4186f6b6457e060405160405180910390a35050565b600033905090565b604051806040016040528060608152602001600081525090565b82805461136490611ee4565b90600052602060002090601f01602090048101928261138657600085556113cd565b82601f1061139f57805160ff19168380011785556113cd565b828001600101855582156113cd579182015b828111156113cc5782518255916020019190600101906113b1565b5b5090506113da9190611403565b5090565b6040518060600160405280600015158152602001600015158152602001600081525090565b5b8082111561141c576000816000905550600101611404565b5090565b6000604051905090565b600080fd5b600080fd5b6000819050919050565b61144781611434565b811461145257600080fd5b50565b6000813590506114648161143e565b92915050565b6000602082840312156114805761147f61142a565b5b600061148e84828501611455565b91505092915050565b600080fd5b600080fd5b6000601f19601f8301169050919050565b7f4e487b7100000000000000000000000000000000000000000000000000000000600052604160045260246000fd5b6114ea826114a1565b810181811067ffffffffffffffff82111715611509576115086114b2565b5b80604052505050565b600061151c611420565b905061152882826114e1565b919050565b600067ffffffffffffffff821115611548576115476114b2565b5b611551826114a1565b9050602081019050919050565b82818337600083830152505050565b600061158061157b8461152d565b611512565b90508281526020810184848401111561159c5761159b61149c565b5b6115a784828561155e565b509392505050565b600082601f8301126115c4576115c3611497565b5b81356115d484826020860161156d565b91505092915050565b6000602082840312156115f3576115f261142a565b5b600082013567ffffffffffffffff8111156116115761161061142f565b5b61161d848285016115af565b91505092915050565b600073ffffffffffffffffffffffffffffffffffffffff82169050919050565b600061165182611626565b9050919050565b61166181611646565b82525050565b600060208201905061167c6000830184611658565b92915050565b7f4e487b7100000000000000000000000000000000000000000000000000000000600052602160045260246000fd5b600681106116c2576116c1611682565b5b50565b60008190506116d3826116b1565b919050565b60006116e3826116c5565b9050919050565b6116f3816116d8565b82525050565b600060208201905061170e60008301846116ea565b92915050565b600081519050919050565b600082825260208201905092915050565b60005b8381101561174e578082015181840152602081019050611733565b8381111561175d576000848401525b50505050565b600061176e82611714565b611778818561171f565b9350611788818560208601611730565b611791816114a1565b840191505092915050565b6117a581611434565b82525050565b600060408301600083015184820360008601526117c88282611763565b91505060208301516117dd602086018261179c565b508091505092915050565b6000602082019050818103600083015261180281846117ab565b905092915050565b61181381611434565b82525050565b600060208201905061182e600083018461180a565b92915050565b61183d81611646565b811461184857600080fd5b50565b60008135905061185a81611834565b92915050565b6000602082840312156118765761187561142a565b5b60006118848482850161184b565b91505092915050565b60008115159050919050565b6118a28161188d565b82525050565b6060820160008201516118be6000850182611899565b5060208201516118d16020850182611899565b5060408201516118e4604085018261179c565b50505050565b60006060820190506118ff60008301846118a8565b92915050565b600082825260208201905092915050565b7f596f75277265206e6f74206120766f7465720000000000000000000000000000600082015250565b600061194c601283611905565b915061195782611916565b602082019050919050565b6000602082019050818103600083015261197b8161193f565b9050919050565b7f566f74696e672073657373696f6e20686176656e74207374617274656420796560008201527f7400000000000000000000000000000000000000000000000000000000000000602082015250565b60006119de602183611905565b91506119e982611982565b604082019050919050565b60006020820190508181036000830152611a0d816119d1565b9050919050565b7f596f75206861766520616c726561647920766f74656400000000000000000000600082015250565b6000611a4a601683611905565b9150611a5582611a14565b602082019050919050565b60006020820190508181036000830152611a7981611a3d565b9050919050565b7f50726f706f73616c206e6f7420666f756e640000000000000000000000000000600082015250565b6000611ab6601283611905565b9150611ac182611a80565b602082019050919050565b60006020820190508181036000830152611ae581611aa9565b9050919050565b7f4e487b7100000000000000000000000000000000000000000000000000000000600052603260045260246000fd5b7f4e487b7100000000000000000000000000000000000000000000000000000000600052601160045260246000fd5b6000611b5582611434565b91507fffffffffffffffffffffffffffffffffffffffffffffffffffffffffffffffff8203611b8757611b86611b1b565b5b600182019050919050565b6000604082019050611ba76000830185611658565b611bb4602083018461180a565b9392505050565b7f50726f706f73616c7320617265206e6f7420616c6c6f77656420796574000000600082015250565b6000611bf1601d83611905565b9150611bfc82611bbb565b602082019050919050565b60006020820190508181036000830152611c2081611be4565b9050919050565b50565b6000611c37600083611905565b9150611c4282611c27565b600082019050919050565b60006020820190508181036000830152611c6681611c2a565b9050919050565b6000611c7882611714565b611c828185611905565b9350611c92818560208601611730565b611c9b816114a1565b840191505092915050565b60006020820190508181036000830152611cc08184611c6d565b905092915050565b7f566f7573206e6520706f7576657a20706173206e65207269656e2070726f706f60008201527f7365720000000000000000000000000000000000000000000000000000000000602082015250565b6000611d24602383611905565b9150611d2f82611cc8565b604082019050919050565b60006020820190508181036000830152611d5381611d17565b9050919050565b7f796f7520726561636820746865206d6178696d756d2070726f706f73616c0000600082015250565b6000611d90601e83611905565b9150611d9b82611d5a565b602082019050919050565b60006020820190508181036000830152611dbf81611d83565b9050919050565b6000611dd182611434565b9150611ddc83611434565b925082821015611def57611dee611b1b565b5b828203905092915050565b7f43757272656e7420737461747573206973206e6f7420766f74696e672073657360008201527f73696f6e20656e64656400000000000000000000000000000000000000000000602082015250565b6000611e56602a83611905565b9150611e6182611dfa565b604082019050919050565b60006020820190508181036000830152611e8581611e49565b9050919050565b6000604082019050611ea160008301856116ea565b611eae60208301846116ea565b9392505050565b7f4e487b7100000000000000000000000000000000000000000000000000000000600052602260045260246000fd5b60006002820490506001821680611efc57607f821691505b602082108103611f0f57611f0e611eb5565b5b50919050565b7f5265676973746572696e672070726f706f73616c732063616e7420626520737460008201527f6172746564206e6f770000000000000000000000000000000000000000000000602082015250565b6000611f71602983611905565b9150611f7c82611f15565b604082019050919050565b60006020820190508181036000830152611fa081611f64565b9050919050565b7f5265676973746572696e672070726f706f73616c7320686176656e742073746160008201527f7274656420796574000000000000000000000000000000000000000000000000602082015250565b6000612003602883611905565b915061200e82611fa7565b604082019050919050565b6000602082019050818103600083015261203281611ff6565b9050919050565b7f5265676973746572696e672070726f706f73616c73207068617365206973206e60008201527f6f742066696e6973686564000000000000000000000000000000000000000000602082015250565b6000612095602b83611905565b91506120a082612039565b604082019050919050565b600060208201905081810360008301526120c481612088565b9050919050565b7f4f776e61626c653a206e6577206f776e657220697320746865207a65726f206160008201527f6464726573730000000000000000000000000000000000000000000000000000602082015250565b6000612127602683611905565b9150612132826120cb565b604082019050919050565b600060208201905081810360008301526121568161211a565b9050919050565b7f566f7465727320726567697374726174696f6e206973206e6f74206f70656e2060008201527f7965740000000000000000000000000000000000000000000000000000000000602082015250565b60006121b9602383611905565b91506121c48261215d565b604082019050919050565b600060208201905081810360008301526121e8816121ac565b9050919050565b7f416c726561647920726567697374657265640000000000000000000000000000600082015250565b6000612225601283611905565b9150612230826121ef565b602082019050919050565b6000602082019050818103600083015261225481612218565b9050919050565b7f4f776e61626c653a2063616c6c6572206973206e6f7420746865206f776e6572600082015250565b6000612291602083611905565b915061229c8261225b565b602082019050919050565b600060208201905081810360008301526122c081612284565b905091905056fea2646970667358221220481b505a166e6f28cbae59b198c9e277b56a0f91e2881ac2300f8fe77ba5798664736f6c634300080e0033",
  "immutableReferences": {},
  "source": "// SPDX-License-Identifier: MIT\n\npragma solidity 0.8.14;\nimport \"../node_modules/@openzeppelin/contracts/access/Ownable.sol\";\n\n/// @title Decentralize Voting System\n/// @author Martin Leclercq\n/// @notice This smart contract is a decentralized voting system and allow authorize voter to propose and vote for a proposal\n\n\ncontract Voting is Ownable {\n\n    uint public winningProposalID;\n    \n    struct Voter {\n        bool isRegistered;\n        bool hasVoted;\n        uint votedProposalId;\n    }\n\n    struct Proposal {\n        string description; \n        uint voteCount;\n    }\n\n    enum  WorkflowStatus {\n        RegisteringVoters,\n        ProposalsRegistrationStarted,\n        ProposalsRegistrationEnded,\n        VotingSessionStarted,\n        VotingSessionEnded,\n        VotesTallied\n    }\n\n\n    WorkflowStatus public workflowStatus;\n    Proposal[] proposalsArray;\n    mapping (address => Voter) voters;\n\n\n    event VoterRegistered(address voterAddress); \n    event WorkflowStatusChange(WorkflowStatus previousStatus, WorkflowStatus newStatus);\n    event ProposalRegistered(uint proposalId);\n    event Voted (address voter, uint proposalId);\n\n    modifier onlyVoters() {\n        require(voters[msg.sender].isRegistered, \"You're not a voter\");\n        _;\n    }\n    \n    // on peut faire un modifier pour les tats\n\n    // ::::::::::::: GETTERS ::::::::::::: //\n\n   \n    /// @notice Calculate tree age in years, rounded up, for live trees\n    /// @dev Modifier : onlyVoters from Ownable is used\n    /// @param _addr is the voter address\n    /// @return voters[_addr] get a voter address in voters mapping \n\n    function getVoter(address _addr) external onlyVoters view returns (Voter memory) {\n        return voters[_addr];\n    }\n\n    /// @notice this function get one Proposal\n    /// @dev Modifier : onlyVoters from Ownable is used\n    /// @param _id is the proposal id form the proposalsArray\n    /// @return proposalsArray[_id] get one specific proposal form the proposalsArray with an id\n    \n    function getOneProposal(uint _id) external onlyVoters view returns (Proposal memory) {\n        return proposalsArray[_id];\n    }\n\n \n    // ::::::::::::: REGISTRATION ::::::::::::: // \n\n    /// @notice this function allow the owner to add voters\n    /// @dev Require : it can work only with the RegisteringVoters WorkflowStatus\n    /// @dev Require : The voter can't be already registered\n    /// @param _addr is the voter address\n    /// @custom:event it return an VoterRegistered event with addresse in paramater\n\n    function addVoter(address _addr) external  {\n        require(workflowStatus == WorkflowStatus.RegisteringVoters, 'Voters registration is not open yet');\n        require(voters[_addr].isRegistered != true, 'Already registered');\n    \n        voters[_addr].isRegistered = true;\n        emit VoterRegistered(_addr);\n        \n    }\n \n    // ::::::::::::: PROPOSAL ::::::::::::: // \n\n    /// @notice This function allow Registered Voters to add proposal\n    /// @dev Modifier : onlyVoters from Ownable is used\n    /// @dev Require : the ProposalsRegistrationStarted WorkflowStatus have to be set\n    /// @dev Require : the Proposal can't be empty\n    /// @dev DOS protection : we limit the proposal number to 100 to avoid DOS attack\n    /// @param _desc is the voter address\n    /// @custom:event it return an ProposalRegistered event with proposalsArray id parameter\n    \n    function addProposal(string memory _desc) external onlyVoters {\n        require(workflowStatus == WorkflowStatus.ProposalsRegistrationStarted, 'Proposals are not allowed yet');\n        require(keccak256(abi.encode(_desc)) != keccak256(abi.encode(\"\")), 'Vous ne pouvez pas ne rien proposer'); // facultatif\n\n        // Dos protection, we limit the array size to 100 poroposals\n        require(proposalsArray.length <= 100, \"you reach the maximum proposal\" );\n\n        // voir que desc est different des autres\n\n        Proposal memory proposal;\n        proposal.description = _desc;\n        proposalsArray.push(proposal);\n        emit ProposalRegistered(proposalsArray.length-1);\n    }\n\n    // ::::::::::::: VOTE ::::::::::::: //\n\n    /// @notice This function allow Registered Voters to vote for a proposal\n    /// @dev Modifier : onlyVoters from Ownable is used\n    /// @dev Require : the VotingSessionStarted WorkflowStatus have to be set\n    /// @dev Require : The voters can't vote twice\n    /// @dev Require : The voters can vote only if the proposal exist in the proposal array\n    /// @param _id is the id of a proposal stocked in the proposal Array\n    /// @custom:event it return an Voted event with the msg.sender and the proposal id as parameter\n\n    function setVote( uint _id) external onlyVoters {\n        require(workflowStatus == WorkflowStatus.VotingSessionStarted, 'Voting session havent started yet');\n        require(voters[msg.sender].hasVoted != true, 'You have already voted');\n        require(_id < proposalsArray.length, 'Proposal not found'); // pas oblig, et pas besoin du >0 car uint\n\n        voters[msg.sender].votedProposalId = _id;\n        voters[msg.sender].hasVoted = true;\n        proposalsArray[_id].voteCount++;\n\n        emit Voted(msg.sender, _id);\n    }\n\n    // ::::::::::::: STATE ::::::::::::: //\n\n    /// @notice This function set the RegisteringVoters WorkflowStatus\n    /// @dev only the Owner can change the status\n    /// @dev Require : The workflowStatus have to be the previous of the one we want to set\n    /// @custom:event it return an WorkflowStatusChange with the previous status and the new one\n\n    function startProposalsRegistering() external onlyOwner {\n        require(workflowStatus == WorkflowStatus.RegisteringVoters, 'Registering proposals cant be started now');\n        workflowStatus = WorkflowStatus.ProposalsRegistrationStarted;\n        emit WorkflowStatusChange(WorkflowStatus.RegisteringVoters, WorkflowStatus.ProposalsRegistrationStarted);\n    }\n\n    /// @notice This function set the endProposalsRegistering WorkflowStatus\n    /// @dev only the Owner can change the status\n    /// @dev Require : The workflowStatus have to be the previous of the one we want to set\n    /// @custom:event it return an WorkflowStatusChange with the previous status and the new one\n\n    function endProposalsRegistering() external onlyOwner {\n        require(workflowStatus == WorkflowStatus.ProposalsRegistrationStarted, 'Registering proposals havent started yet');\n        workflowStatus = WorkflowStatus.ProposalsRegistrationEnded;\n        emit WorkflowStatusChange(WorkflowStatus.ProposalsRegistrationStarted, WorkflowStatus.ProposalsRegistrationEnded);\n    }\n\n    /// @notice This function set the startVotingSession WorkflowStatus\n    /// @dev only the Owner can change the status\n    /// @dev Require : The workflowStatus have to be the previous of the one we want to set\n    /// @custom:event it return an WorkflowStatusChange with the previous status and the new one\n\n    function startVotingSession() external onlyOwner {\n        require(workflowStatus == WorkflowStatus.ProposalsRegistrationEnded, 'Registering proposals phase is not finished');\n        workflowStatus = WorkflowStatus.VotingSessionStarted;\n        emit WorkflowStatusChange(WorkflowStatus.ProposalsRegistrationEnded, WorkflowStatus.VotingSessionStarted);\n    }\n\n    /// @notice This function set the endVotingSession WorkflowStatus\n    /// @dev only the Owner can change the status\n    /// @dev Require : The workflowStatus have to be the previous of the one we want to set\n    /// @custom:event it return an WorkflowStatusChange with the previous status and the new one\n\n    function endVotingSession() external onlyOwner {\n        require(workflowStatus == WorkflowStatus.VotingSessionStarted, 'Voting session havent started yet');\n        workflowStatus = WorkflowStatus.VotingSessionEnded;\n        emit WorkflowStatusChange(WorkflowStatus.VotingSessionStarted, WorkflowStatus.VotingSessionEnded);\n    }\n\n\n    /// @notice This function announce the winning porposal id\n    /// @dev only the Owner can change the status\n    /// @dev Require : the VotingSessionEnded WorkflowStatus have to be set\n    /// @custom:event it return an WorkflowStatusChange with the previous status and the new one\n\n    function tallyVotes() external onlyOwner {\n       require(workflowStatus == WorkflowStatus.VotingSessionEnded, \"Current status is not voting session ended\");\n       uint _winningProposalId;\n      for (uint256 p = 0; p < proposalsArray.length; p++) {\n           if (proposalsArray[p].voteCount > proposalsArray[_winningProposalId].voteCount) {\n               _winningProposalId = p;\n          }\n       }\n       winningProposalID = _winningProposalId;\n       \n       workflowStatus = WorkflowStatus.VotesTallied;\n       emit WorkflowStatusChange(WorkflowStatus.VotingSessionEnded, WorkflowStatus.VotesTallied);\n    }\n}",
  "sourcePath": "/Users/leclercqmartin/Desktop/election/truffle/contracts/Voting.sol",
  "compiler": {
    "name": "solc",
    "version": "0.8.14+commit.80d49f37.Emscripten.clang"
  },
  "schemaVersion": "3.4.7",
  "updatedAt": "2022-07-11T17:25:39.843Z",
  "networkType": "ethereum",
  "devdoc": {
    "author": "Martin Leclercq",
    "kind": "dev",
    "methods": {
      "addProposal(string)": {
        "custom:event": "it return an ProposalRegistered event with proposalsArray id parameter",
        "details": "Modifier : onlyVoters from Ownable is usedRequire : the ProposalsRegistrationStarted WorkflowStatus have to be setRequire : the Proposal can't be emptyDOS protection : we limit the proposal number to 100 to avoid DOS attack",
        "params": {
          "_desc": "is the voter address"
        }
      },
      "addVoter(address)": {
        "custom:event": "it return an VoterRegistered event with addresse in paramater",
        "details": "Require : it can work only with the RegisteringVoters WorkflowStatusRequire : The voter can't be already registered",
        "params": {
          "_addr": "is the voter address"
        }
      },
      "endProposalsRegistering()": {
        "custom:event": "it return an WorkflowStatusChange with the previous status and the new one",
        "details": "only the Owner can change the statusRequire : The workflowStatus have to be the previous of the one we want to set"
      },
      "endVotingSession()": {
        "custom:event": "it return an WorkflowStatusChange with the previous status and the new one",
        "details": "only the Owner can change the statusRequire : The workflowStatus have to be the previous of the one we want to set"
      },
      "getOneProposal(uint256)": {
        "details": "Modifier : onlyVoters from Ownable is used",
        "params": {
          "_id": "is the proposal id form the proposalsArray"
        },
        "returns": {
          "_0": "proposalsArray[_id] get one specific proposal form the proposalsArray with an id"
        }
      },
      "getVoter(address)": {
        "details": "Modifier : onlyVoters from Ownable is used",
        "params": {
          "_addr": "is the voter address"
        },
        "returns": {
          "_0": "voters[_addr] get a voter address in voters mapping "
        }
      },
      "owner()": {
        "details": "Returns the address of the current owner."
      },
      "renounceOwnership()": {
        "details": "Leaves the contract without owner. It will not be possible to call `onlyOwner` functions anymore. Can only be called by the current owner. NOTE: Renouncing ownership will leave the contract without an owner, thereby removing any functionality that is only available to the owner."
      },
      "setVote(uint256)": {
        "custom:event": "it return an Voted event with the msg.sender and the proposal id as parameter",
        "details": "Modifier : onlyVoters from Ownable is usedRequire : the VotingSessionStarted WorkflowStatus have to be setRequire : The voters can't vote twiceRequire : The voters can vote only if the proposal exist in the proposal array",
        "params": {
          "_id": "is the id of a proposal stocked in the proposal Array"
        }
      },
      "startProposalsRegistering()": {
        "custom:event": "it return an WorkflowStatusChange with the previous status and the new one",
        "details": "only the Owner can change the statusRequire : The workflowStatus have to be the previous of the one we want to set"
      },
      "startVotingSession()": {
        "custom:event": "it return an WorkflowStatusChange with the previous status and the new one",
        "details": "only the Owner can change the statusRequire : The workflowStatus have to be the previous of the one we want to set"
      },
      "tallyVotes()": {
        "custom:event": "it return an WorkflowStatusChange with the previous status and the new one",
        "details": "only the Owner can change the statusRequire : the VotingSessionEnded WorkflowStatus have to be set"
      },
      "transferOwnership(address)": {
        "details": "Transfers ownership of the contract to a new account (`newOwner`). Can only be called by the current owner."
      }
    },
    "title": "Decentralize Voting System",
    "version": 1
  },
  "userdoc": {
    "kind": "user",
    "methods": {
      "addProposal(string)": {
        "notice": "This function allow Registered Voters to add proposal"
      },
      "addVoter(address)": {
        "notice": "this function allow the owner to add voters"
      },
      "endProposalsRegistering()": {
        "notice": "This function set the endProposalsRegistering WorkflowStatus"
      },
      "endVotingSession()": {
        "notice": "This function set the endVotingSession WorkflowStatus"
      },
      "getOneProposal(uint256)": {
        "notice": "this function get one Proposal"
      },
      "getVoter(address)": {
        "notice": "Calculate tree age in years, rounded up, for live trees"
      },
      "setVote(uint256)": {
        "notice": "This function allow Registered Voters to vote for a proposal"
      },
      "startProposalsRegistering()": {
        "notice": "This function set the RegisteringVoters WorkflowStatus"
      },
      "startVotingSession()": {
        "notice": "This function set the startVotingSession WorkflowStatus"
      },
      "tallyVotes()": {
        "notice": "This function announce the winning porposal id"
      }
    },
    "notice": "This smart contract is a decentralized voting system and allow authorize voter to propose and vote for a proposal",
    "version": 1
  }
}